:020000040800F2
:1000000000070020F1010008792D0008312D0008BB
:10001000592D0008312D0008512D0008F30100086A
:10002000F3010008F3010008F3010008353E000861
:10003000F3010008F3010008F3010008F3010008D0
:10004000F3010008F3010008F3010008F3010008C0
:10005000F3010008F3010008F3010008F3010008B0
:10006000F3010008F3010008F3010008F3010008A0
:10007000F3010008F3010008F3010008F301000890
:10008000F3010008F3010008F3010008E52C000863
:10009000112D0008212D0008F3010008F3010008CC
:1000A000F3010008F3010008F3010008F301000860
:1000B000B9690008F3010008F3010008F301000822
:1000C000F3010008F3010008F3010008F301000840
:1000D000F3010008F3010008A5690008F301000816
:1000E000F3010008F3010008F3010008F301000820
:1000F000F3010008F3010008F3010008F301000810
:10010000F3010008F3010008F3010008F3010008FF
:10011000F3010008F3010008F3010008F3010008EF
:10012000F3010008F3010008F3010008F3010008DF
:10013000F3010008F3010008F3010008F3010008CF
:10014000F3010008F3010008F3010008955F0008BF
:10015000F3010008F3010008F3010008F3010008AF
:10016000F3010008F3010008F3010008F30100089F
:10017000F3010008F3010008F3010008F30100088F
:10018000F3010008F3010008F3010008F30100087F
:10019000F3010008F3010008F3010008F30100086F
:1001A000F3010008F3010008F3010008F30100085F
:1001B000F3010008F3010008F3010008F30100084F
:1001C000F3010008F3010008F3010008F30100083F
:1001D000F3010008F3010008F3010008F30100082F
:1001E000A115000800000000000000000000000051
:1001F00002E000F000F8FEE772B6374880F30888A6
:10020000364880F3098836483649086040F20000D5
:10021000CCF200004EF63471CEF200010860BFF35C
:100220004F8FBFF36F8F40F20000C0F2F0004EF628
:100230008851CEF200010860BFF34F8FBFF36F8F7C
:100240004FF00000E1EE100A4EF63C71CEF20001D4
:100250000860062080F31488BFF36F8F05F062FBFF
:1002600006F046FA4FF055301F491B4A91423CBFF9
:1002700041F8040BFAE71D49184A91423CBF41F886
:10028000040BFAE71A491B4A1B4B9A423EBF51F82E
:10029000040B42F8040BF8E700201849184A914271
:1002A0003CBF41F8040BFAE705F040FB06F074FA96
:1002B000144C154DAC4203DA54F8041B8847F9E797
:1002C00000F042F8114C124DAC4203DA54F8041B12
:1002D0008847F9E705F028BB00070020002300202D
:1002E0000000000808ED00E00001002000070020E9
:1002F000086F000800230020BC230020C02300203A
:100300008C580020E0010008E4010008E401000826
:10031000E40100082DE9F04F2DED108AC1F80CD052
:10032000C3689D46BDEC108ABDE8F08F002383F3BF
:1003300011882846A047002004F0DEFDFEE704F007
:100340005DFD00DFFEE70000F8B501F0A5F905F05E
:100350008BFA30B12A4B00220F211A725A7299720D
:10036000DA7205F063FA074605F0C8FA0546002878
:100370003AD1244B9F4237D001339F4237D0224B92
:1003800027F0FF029A4235D1F8B200F025FF2E4641
:1003900042F2107400F026FF08B10024264601F056
:1003A000A9FD20B1032000F083F80024264635B1D2
:1003B000164B9F4203D005F099FA002426460020F0
:1003C00005F03EFA124B1B6913F4807316D00EB180
:1003D00000F084F801F0CEFA00F072FF204600F041
:1003E000E3F800F07BF8F9E72E460024D2E7044654
:1003F0000126CFE7064641F28834CBE71C46E9E701
:1004000000230020010007B0000008B0263A09B020
:100410000004024008B501F00BF9A0F12003584296
:10042000584108BD07B5042101900DEB010001F012
:100430001DF903B05DF804FB38B5302383F3118850
:10044000174803680BB104F023FE164A1448002332
:100450004FF47A7104F012FE002383F31188124CDA
:10046000236813B12368013B2360636813B1636899
:10047000013B63600D4D2B7833B963687BB9022073
:1004800001F0DAF9322363602B78032B07D163681C
:100490002BB9022001F0D0F94FF47A73636038BDB4
:1004A000C023002039040008E0240020D8230020C5
:1004B000084B187003280CD8DFE800F00805020884
:1004C000022001F0A9B9022001F098B9024B0022E4
:1004D0005A607047D8230020E024002010B501F0B6
:1004E00009FD30B1294B03221A70294B00225A60B2
:1004F00010BD284B284A1C4619680131F8D0043336
:100500009342F9D16268254B9A42F1D9244B9B68FA
:1005100003F1006303F580339A42E9D205F0BAF99A
:1005200005F0CCF9002001F0D1F80220FFF7C0FF60
:100530001C4B1A6C00221A64196E1A66196E596CDB
:100540005A64596E5A665A6E5A6942F080025A616C
:100550005A6922F080025A615A691A6942F00052BF
:100560001A611A6922F000521A611B6972B64FF0C3
:10057000E0233021C3F8084DD4E9003281F311881B
:100580009D4683F308881047B2E700BFD8230020B8
:10059000E02400200000010820000108FFFF0008FF
:1005A00000230020003802402DE9F04F95B0DFF81D
:1005B000F89202902022FF2104A8D9F8085001F0F7
:1005C00083F9B04A1378A3B9AF48012103601170D1
:1005D000302383F3118803680BB104F059FDAB4A53
:1005E000A94800234FF47A7104F048FD002383F3F7
:1005F0001188029B13B1A64B029A1A60A54A029C6D
:100600001378032B1EBF00231370A14A4FF0000B79
:1006100018BF5360CDF804B05E46DA46012001F001
:10062000FBF824B19A4B1B68002B00F0DC81002002
:1006300000F0FEFF071E80F20C8200F089FEF0E75A
:100640000220FFF7E7FE002840F0FA81029B924863
:10065000BBF1000F08BF1C46022140E04FF47A7046
:1006600000F0E6FF071EF1DB0220FFF7D3FE0028B3
:10067000ECD0013F052F00F2E581DFE807F003072A
:100680000A0D10330520FFF7CDFE14E0D9F8000065
:10069000F9E7D9F80400F6E7D9F80800F3E74FF0D6
:1006A0001C08404601F014F808F10408FFF7BAFEF0
:1006B000B8F12C0FF5D1019B012000FA07F71F4379
:1006C000FBB201934FF0000A01F04AF92EB1019BF1
:1006D00003F00B030B2B08BF00247048022100F02D
:1006E000C5FF9BE7D9F80C00CDE7002EAED0019BEB
:1006F00003F00B030B2BA9D10220FFF78BFE07465B
:100700000028A3D0012000F0E1FF0220FFF7D0FE77
:1007100000261FFA86F8404600F0E8FF044670B154
:100720000021404600F0FAFF01360028F1D1BB4617
:1007300004465B48022100F099FF3E466EE7012027
:10074000FFF7B6FE2546D9F80830AB4207D9284650
:1007500000F0BEFF013040F078810435F3E74D4BE7
:1007600000251D704A4BBB465D603E46ACE7002E3F
:100770003FF46CAF019B03F00B030B2B7FF466AFD0
:100780000220FFF795FE322000F052FFB0F1000882
:10079000FFF65CAF18F003077FF458AFD9F80820D4
:1007A00008EB050393423FF651AFB8F5807F3FF762
:1007B0004DAF3C4B0393B8450BDD4FF47A7000F01E
:1007C00037FF0028FFF642AF039B013703F8010B08
:1007D000F0E7C820FFF71EFE074600283FF436AFBB
:1007E0001F2D11D8C5F12002424504AB25F00300AE
:1007F00028BF42462B490392184401F03FF8039A60
:100800002848FF2101F060F84FEAA8032549039327
:10081000C8F38702284601F05FF80646002888D012
:10082000039B05EB83054FE70220FFF7F3FD00284C
:100830003FF40CAF00F092FF00283FF407AF002711
:10084000B846D9F80830BB4218D91F2F11D8049BDD
:1008500001330ED027F0030314AA134453F8403C8D
:100860000C93404604220CA901F0FCFA04378046A0
:10087000E7E7384600F02CFF0C90F2E74046FFF720
:10088000D1FD21E7DC240020C0230020390400082A
:10089000E0240020D8230020E06A0008D86A00087D
:1008A000DC6A0008DC2300200023002000236421F0
:1008B0000CA80C9300F0D0FE00287FF4C7AE0220F5
:1008C000FFF7A8FD00283FF4C1AE0C9800F02EFF02
:1008D000D5E7002364210CA80C9300F0BDFE00288E
:1008E0007FF4B4AE0220FFF795FD00283FF4AEAED2
:1008F0000C9800F02BFFC2E70220FFF78BFD0028C9
:100900003FF4A4AE00F03AFFB9E70220FFF782FD02
:1009100000283FF49BAE0CA9142000F035FF039093
:10092000FFF780FD03990CA800F0A0FECCE60220A2
:10093000FFF770FD00283FF489AE624B0CAF03F166
:10094000100C186859683A4603C2083363451746C5
:10095000F7D11020FFF766FD1021E4E7322000F008
:1009600067FE071EFFF672AEBB077FF46FAED9F8C5
:10097000082007EB0A0393423FF668AE0220FFF718
:1009800049FD00283FF462AE27F003075744BA45FB
:100990003FF49AAE504600F09BFEFFF743FD0AF18C
:1009A000040AF4E74FF47A70FFF734FD00283FF4AF
:1009B0004DAE00F0D3FE002849D0049B01330BD08C
:1009C000082204A9002000F087FF00283FD0202241
:1009D000FF2104A800F078FF3B48022100F046FE0A
:1009E0003A4804F08FFA15B0BDE8F08F002E3FF4BE
:1009F0002DAE019B03F00B030B2B7FF427AE0023DE
:100A000064210CA80C9300F027FE074600287FF411
:100A10001DAE0220FFF7FEFC804600283FF416AE14
:100A20000221294800F022FE41F2883004F06AFADF
:100A30000C9800F0D9FF464600F092FF3C46EDE5E9
:100A4000064641E64FF0000A00E6BB4671E637462F
:100A50006FE6012000F0D2FEA7F1210016283FF634
:100A6000DDAD01A353F820F0410600085D06000843
:100A7000EB0600081D0600081D0600081D060008FC
:100A80006F0700085D09000829080008AD08000884
:100A9000D3080008F90800081D0600080B09000823
:100AA0002F090008A5090008C90600081D0600084E
:100AB000ED0900084D060008C90600081D060008DB
:100AC000AD080008C46A0008D86A0008A0860100C2
:100AD000094A136849F2690099B21B0C00FB013303
:100AE0001360064B186844F2506182B2000C01FB9F
:100AF0000200186080B270471823002014230020E1
:100B000010B500211022044600F0DEFE034B03CB9B
:100B1000206061601868A06010BD00BF107AFF1FE0
:100B2000F0B5ADF5517D6EAC4FF4C47207460D467D
:100B30002046002100F0C8FE02F026F9264B4FF4B3
:100B40007A72B0FBF2F0186093E80700022384E8A1
:100B500007000DF5ED702382FFF7D2FF47F605235E
:100B60001E49238407A805F0A5FF1D2384F8323110
:100B70000DF2EB2207AB0DF1340C1E4603CE664599
:100B800010605160334602F10802F6D130681060FF
:100B9000337913710FAE31460122204600F046FF33
:100BA00000230393AB7E029305F11903019380B2F6
:100BB0000123CDE904600093E97E05A3D3E9002376
:100BC000384602F0FFFC0DF5517DF0BDAFF300801B
:100BD0009E6AC421818A46EEE8240020E46A000867
:100BE0002DE9F0412C4C237ADAB080460D465BBBF0
:100BF00027A9284601F040F80746002842D19DF871
:100C00009D60C82E3ED801464FF4A662204600F0F3
:100C10005BFE4FF48073C4F8F8314FF40073C4F8EE
:100C20000C334FF44073C4F8203432460DF19E016A
:100C300004F1090000F022FE26449DF89C307772F2
:100C400023720BB9EB7E23728122002106AC27A808
:100C500000F03AFE0122214627A801F053F80023B4
:100C60000393AB7E029305F1190380B2019328230D
:100C7000CDE904400093E97E05A3D3E90023404673
:100C800002F0A0FC5AB0BDE8F08100BFAFF30080D5
:100C900026417272DF25D7B730350020F0B5254EDA
:100CA0004FF48A7505FB0065F1B096F8D83085F8E9
:100CB000DC300024D822214685F8E8403AA800F02C
:100CC00003FE06F1090000F0F7FDD5F8E4308DF8D9
:100CD000F000C2B206AF06F109010DF1F100CDE955
:100CE0003A3400F0CBFD394601223AA801F040F831
:100CF00080B2CDE9047008230127CDE9023706F15F
:100D0000D803019330230093317A0B4807A3D3E92A
:100D1000002302F057FCA04206DD02F035F8C5F8CA
:100D2000E000384671B0F0BD2046FBE778F6339F0F
:100D300093CACD8D30350020003500202DE9F041DB
:100D40001D4D1E4E1E4F86B0284602F067FC03461E
:100D500058B30024CDE90344ADF81440027B8DF86C
:100D6000142099684068029403AA03C21B68DFF844
:100D7000548043F00043029302F008F8821941F1D5
:100D80000003009402A9384601F09CFAA04205DD58
:100D9000284602F047FC88F80040D5E798F8003074
:100DA000072B05D8013388F8003006B0BDE8F08184
:100DB000014802F037FCF8E70035002040420F0000
:100DC000683A0020653A002070B50D4614461E466C
:100DD00002F054FB50B9022E10D1012C0ED112A3F7
:100DE000D3E90023C5E90023012007E0282C10D017
:100DF00005D8012C09D0052C0FD0002070BD302C57
:100E0000FBD10BA3D3E90023ECE70BA3D3E9002329
:100E1000E8E70BA3D3E90023E4E70BA3D3E900231E
:100E2000E0E700BFAFF30080401DA12026812A0B20
:100E300078F6339F93CACD8D9E6AC421818A46EE8F
:100E400026417272DF25D7B7F017304A39059E5612
:100E500038B505460E4C0021013500F05FFCA4F8C2
:100E60002C55B4F82C0500F041FC78B1B4F82C05F1
:100E700000F04CFC014648B9B4F82C0500F04EFCDB
:100E8000B4F82C350133A4F82C35EAE738BD00BF9F
:100E90003035002010B50A4B0A4A1A6003F580531A
:100EA00093F870203AB9DC6E2CB1204601F0A0F81E
:100EB000204601F0DDF9BDE81040034801F098B884
:100EC000683A0020A06B0008C04A00202DE9F04FCE
:100ED0008FB000AF05460C4602F0D0FA00284BD187
:100EE000237E022B1BD1E38A012B18D101F04CFF8A
:100EF0000646FFF7EDFD03464FF4C870DFF8D482D5
:100F0000B3FBF0F206F5167602FB103316FA83F304
:100F1000C8F80030E37E33B9A74B00221A703C3783
:100F2000BD46BDE8F08F07F12401204600F058FED1
:100F30000028F4D107F11400FFF7E2FD97F82640EE
:100F400007F11401224607F1270005F081FD002872
:100F5000E2D10F2C08D8984B1C70D8F80030A3F5BC
:100F60001673C8F80030DAE797F824100029D6D0B5
:100F7000284602F07BFAD2E7E38A282B33D010D838
:100F8000012B2BD0052BCAD1BFF34F8F8B498C4B34
:100F9000CA6802F4E0621343CB60BFF34F8F00BF17
:100FA000FDE7302BBBD1874EE17E327A9142B6D13C
:100FB000607E3146002291F8DC50854200F0AD8021
:100FC0000132042A01F58A71F5D1326840F6B83150
:100FD000FA328A4294BF32603160A0E72146284647
:100FE000FFF79EFD9BE721462846FFF7F9FD96E7B0
:100FF000B2F8EC507B6005F103094FEA99094FEA1A
:101000008902D11DC908A8EBC1039D46EB4600210A
:10101000584600F059FC04F1EE012A463144584686
:1010200000F02CFC7B6813B9012000F04FFB96F810
:10103000D20000F05BFB044630B9307200F08EFB4A
:10104000204600F043FBB0E0D6F8D4203AB996F839
:10105000D200B6F82C25824201D8FFF7F9FED6F867
:10106000D4202A44944208D296F8D200B6F82C250F
:101070000130824201D8FFF7EBFE70685FFA89F217
:10108000594600F029FC08B9C54679E0726896F81F
:10109000D2002A447260D6F8D42005EB0209C6F8C3
:1010A000D49000F023FB814509D396F8D220D6F8DE
:1010B000D4000132001B86F8D220C6F8D400FF2DE0
:1010C0000FD80024347200F049FB204600F0FEFAED
:1010D00000F010FF3C4B188108B9FFF7FFF9C54637
:1010E0001DE7BB6896F8D9000AFB0362FB68D2F8DB
:1010F000E41082F8E83001F58061C2F8E030C2F80F
:10110000E410FFF7CBFDFFF719FE96F8D920013266
:1011100002F0030286F8D920B6E74FF48A7A0AFB78
:1011200002F505F1EA013144204600F055FEF86071
:1011300000287FF4F4AE3544012285F8E82001F060
:1011400023FED5F8E020D6ED007ADFED206A801A84
:10115000192838BF192040F6B832904228BF1046EF
:10116000B8EE677A07EE900AF8EEE77A67EEA67AAD
:10117000DFED176AE7EE267AFCEEE77AC6ED007A35
:1011800096F8D9307168BB600AFB03F4321992F803
:10119000E8505DB1D2F8E4308B42E8463FF428AF26
:1011A000002182F8E810C2F8E010C5467368064ACC
:1011B0009B0A01331381B2E6F934002000ED00E010
:1011C0000400FA0530350020E8240020CDCCCC3DC9
:1011D0006666663FFC340020014B1870704700BF04
:1011E000F424002030B54FF000542C4B22689A4272
:1011F00085B023D1637D0BB3294A2A481370237D20
:1012000003724FF48073C0F8F8314FF40073C0F8E4
:101210000C3300254FF44073C0F820342249C0F845
:10122000E450C922093000F029FB2046E02229467B
:1012300000F04AFB0124204605B030BD04F068FBF5
:10124000044608B90024F6E7184A194D136C43F018
:1012500000731364AA6D174B9A42F3D12B6E013BB6
:101260007E2BEFD8144A07CA01AB83E80700184663
:10127000032100F00DFE6B6D83424FF00003E1D1BE
:101280002A6D8A4201BFAB65054B2A6E1A7003BFF7
:101290000A4BEA6D1A601C46CDE700BF9AAD44C503
:1012A000F4240020303500201600002000380240D1
:1012B000006600405041A0B0586600401023002056
:1012C00037B51A4D00F016FE02236B71184B2881BA
:1012D00019681848012201F0F1FB00230193164B15
:1012E000164900931648174B4FF4805202F096F8B7
:1012F000154B197811B1124802F0B8F801F044FD0D
:101300000446FFF7E5FB4FF4C873B0FBF3F202FBB2
:10131000130304F5167010FA83F00C4B186004F0F8
:10132000EDFA08B10F232B8103B030BDE824002073
:1013300010230020683A0020C90D0008F82400207E
:1013400000350020CD0E0008F4240020FC340020DD
:101350002DE9F04F2DED028B0FF23829D9E90089E4
:10136000834C93B00BAE9FED7E8BFFF7E7FC814F74
:10137000DFF828A200230A93ADF834300B93736092
:101380004FF0000B5B468DED008B01250DF11D022A
:1013900007A938468DF81C508DF81DB001F03CFBB4
:1013A0009DF81C30002B40F0A580204602F066F826
:1013B0000646002845D1704F01F0E6FC3B68984294
:1013C0003FD301F0E1FC8246FFF782FB4FF4C87384
:1013D000B0FBF3F202FB13030AF5167010FA83F068
:1013E0003860664F97F800B0CBF1100ABBF1000FE0
:1013F00014BF33462B465FFA8AFA0EA88DF82830C0
:10140000FFF77EFBBAF1060F28BF4FF0060A0EABBE
:1014100003EB0B0152460DF1290000F02FFA0AAB45
:101420000393182302930AF10102554BD2B2CDE97E
:101430000053049220464CA3D3E9002302F064F841
:101440003E7001F0A1FC4F4A4F4D1368C31AB3F52B
:101450007A7F2ED3106001F099FC02460B4620469D
:1014600002F0EAF8204602F009F810B32B7A474E52
:10147000002B14BF03230223737101F085FC0EAF10
:101480004FF47A730122B0FBF3F0394630603046F6
:1014900000F07EFB182302933D4B019380B240F293
:1014A0005513CDE90370009342464B46204602F0A7
:1014B0002BF82B7A93B101F067FC002607464FF416
:1014C0008A7A95F8D900304400F003000AFB0053F3
:1014D00093F8E82092B30136042EF2D1C82003F02D
:1014E00011FD2B7A002B7FF43DAF13B0BDEC028BC6
:1014F000BDE8F08FDAF8143083F00203CAF8143034
:10150000594610220EA800F0DFF90DF11E0308AABB
:101510000AA9384600F0DCFF96E803000FAB83E829
:1015200003009DF834308DF844300A9B0E930EA9C9
:10153000DDE90823204602F053FA21E7D3F8E02042
:1015400042B12B68FA2B38BFFA23BA1A0533B2EB33
:10155000430FC0D3FFF7A2FB0028BCD1BEE700BFFA
:101560000000000000000000401DA12026812A0B81
:1015700000350020683A0020FC340020F9340020B7
:10158000F8340020603A002030350020E8240020A4
:10159000643A0020F1C6A7C1D068080F00040240D9
:1015A00008B5054801F032F8BDE80840034A04498F
:1015B000002005F029BA00BF683A00209C4B0020AB
:1015C000950E00082DE9F84F4FF47A73DFF8588034
:1015D000DFF8589006460D4602FB03F7002498F901
:1015E00000305A1C5FFA84FA01D0A34212D159F894
:1015F000240003682A46D3F820B031463B46D8473A
:10160000854207D1074B012083F800A0BDE8F88F81
:101610000124E4E7002CFBD04FF4FA7003F072FCD5
:101620000020F3E7904B00201C2300202023002003
:1016300007B50023024601210DF107008DF80730A0
:10164000FFF7C0FF20B19DF8070003B05DF804FB71
:101650004FF0FF30F9E700000A4608B50421FFF714
:10166000B1FF80F00100C0B2404208BD30B4074B6A
:101670000A461978064B53F821402368DD69054B6B
:101680000146AC46204630BC604700BF904B00206E
:1016900020230020A086010070B503F065FF094EED
:1016A000094D3080002428683388834208D903F02C
:1016B00055FF2B6804440133B4F5803F2B60F2D30F
:1016C00070BD00BF924B0020504B002004F002B8C8
:1016D00000F1006000F580300068704700F10060A4
:1016E000920000F5803003F08DBF0000054B1A68B2
:1016F000054B1B889B1A834202D9104403F02EBF6E
:1017000000207047504B0020924B0020024B1B687A
:10171000184403F02BBF00BF504B0020024B1B6846
:10172000184403F03BBF00BF504B002010F00303F0
:101730000AD1B0F5047F05D200F10050A0F51040A9
:10174000D0F80038184670470023FBE700F100503E
:10175000A0F51040D0F8100A70470000064991F833
:10176000243033B10023086A81F824300822FFF7BF
:10177000B5BF0120704700BF544B0020014B1868D3
:10178000704700BF002004E070B5194B1D68194B6D
:101790000138C5F30B0408442D0C04221E88A64210
:1017A0000BD15C680A46013C824213460FD214F901
:1017B000016F4EB102F8016BF6E7013A03F108033D
:1017C000ECD181420B4602D22C2203F8012B0A4AAB
:1017D00005241688AE4204D1984284BF967803F857
:1017E000016B013C02F10402F3D1581A70BD00BF35
:1017F000002004E0446B0008306B0008022802D18E
:10180000044B98617047012802BF024B08229A617D
:10181000704700BF00040240022804D1054B4FF47A
:1018200000329A6170470128FCD1024B4FF400222C
:10183000F7E700BF00040240022805D1064A5369B9
:1018400083F00203536170470128FCD1024A5369B7
:1018500083F00803F6E700BF0004024070B50446B9
:101860004FF47A764CB1412C254628BF412506FB22
:1018700005F003F047FB641BF4E770BD10B50023CF
:10188000934203D0CC5CC4540133F9E710BD00008F
:1018900010B5013810F9013F3BB191F900409C426D
:1018A00003D11AB10131013AF4E71AB191F90020DC
:1018B000981A10BD1046FCE703460246D01A12F9EA
:1018C000011B0029FAD1704702440346934202D01B
:1018D00003F8011BFAE770472DE9F8431F4D144642
:1018E00095F824200746884652BBDFF870909CB3D9
:1018F00095F824302BB92022FF2148462F62FFF7AC
:10190000E3FF95F82400C0F10802A24228BF224656
:10191000D6B24146920005EB8000FFF7AFFF95F885
:101920002430A41B1E44F6B2082E17449044E4B29F
:1019300085F82460DBD1FFF711FF0028D7D108E03C
:101940002B6A03EB82038342CFD0FFF707FF002807
:10195000CBD10020BDE8F8830120FBE7544B0020E9
:10196000024B1A78024B1A70704700BF904B002050
:101970001C23002038B5174C174D204602F018FEE6
:101980002946204602F040FE2D686A6D936B23F4D1
:10199000002393634FF47A70FFF760FF0F492846E6
:1019A00002F038FF6A6D0E4D936B28680D4943F4C1
:1019B00000239363A0424FF4E1330B6001D002F0A7
:1019C00057FD6868A04204D0BDE83840054902F0E0
:1019D0004FBD38BD80500020CC6C0008D46C00088E
:1019E000202300207C4B002070B50C4B0C4D1E7842
:1019F0000C4B55F826209A4204460DD00A4B002184
:101A000014221846FFF760FF0460014655F82600CF
:101A1000BDE8704002F02CBD70BD00BF904B0020AF
:101A200020230020805000207C4B00202DE9F3472C
:101A30000D46044600219046284640F27912FFF7F1
:101A400043FF234620220021284601F06BFF231D7F
:101A500002222021284601F065FF631D0322222176
:101A6000284601F05FFFA31D03222521284601F02F
:101A700059FF04F1080310222821284601F052FFE3
:101A800004F1100308223821284601F04BFF04F12D
:101A9000110308224021284601F044FF04F11203FB
:101AA00008224821284601F03DFF04F114032022BA
:101AB0005021284601F036FF04F11803402270211E
:101AC000284601F02FFF04F120030822B021284608
:101AD00001F028FF04F121030822B821284601F073
:101AE00021FF04F12207C0263B4631460822284642
:101AF000083601F017FFB6F5A07F07F10107F3D113
:101B000094F832308DF8073031460DF10703082282
:101B1000284601F007FF002604F1330A9DF807303C
:101B20004FEAC6099E4209F5A47720D394F83231D2
:101B3000502B28BF50238DF80730B8F1000F08D183
:101B400039460DF107030722284601F0EBFE09F2A2
:101B50004F17002604F233149DF807309E4207EB1E
:101B6000C6010DD30731C80802B0BDE8F0870AEB03
:101B7000060308223946284601F0D4FE0136CDE797
:101B8000A3190822284601F0CDFE0136E4E7000043
:101B900013B504460846002101602346C0F803102F
:101BA0002022019001F0BEFE0198231D0222202177
:101BB00001F0B8FE0198631D0322222101F0B2FE5C
:101BC0000198A31D0322252101F0ACFE019804F128
:101BD00008031022282101F0A5FE072002B010BD45
:101BE000F7B5047F05460E462CB1838A122B02D925
:101BF000012003B0F0BD00231946072200962846B5
:101C000001F054FD731C0093012200230721284694
:101C100001F04CFDD4B9B31C0093052223460821E2
:101C2000284601F043FD0D24B378102BE0D8374649
:101C3000B278BB1B934210D32B7FA88A0734E408E9
:101C4000B3B9844294BF00200120D2E7AB8ADB0005
:101C5000083BDB08B3700824E6E7FB1C0093214631
:101C600000230822284601F021FD08340137DFE770
:101C7000201A18BF0120BCE7F7B5047F05460E46C1
:101C80002CB1838ACA2B02D9012003B0F0BD0023F6
:101C9000194600960822284601F008FD731CD4B9A5
:101CA0000822009311462346284601F0FFFC102429
:101CB0007378C82BE8D8012372785F1C013B9342EC
:101CC00010D32B7FA88A0734E408B3B9844294BFA9
:101CD00000200120D9E7AB8ADB00083BDB087370EA
:101CE0000824E5E7F319009321460023082228463B
:101CF00001F0DCFC08343B46DEE7201A18BF012067
:101D0000C3E70000F7B50D460446002116462846F5
:101D10008122FFF7D9FD234608220021284601F041
:101D200001FE94F901206378002AB8BF7F238DF863
:101D300007309EB90DF1070307220821284601F05C
:101D4000F1FD0F27002602349DF807309E4207EB75
:101D5000C60105D30731C80803B0F0BD0827F1E775
:101D6000A3190822284601F0DDFD0136ECE700004A
:101D7000F7B50E460546002114463046CE22FFF741
:101D8000A3FD2B4628220021304601F0CBFD2B7A03
:101D9000C82B28BFC8238DF807308CB90DF1070375
:101DA00008222821304601F0BDFD30242F469DF841
:101DB00007207B1B934205D3E01DC00803B0F0BD94
:101DC0002824F3E707F1090321460822304601F0F1
:101DD000A9FD08340137EAE7F7B5047F05460E464A
:101DE00034B1838AB3F5827F02D9012003B0F0BDFC
:101DF0000096012310220021284601F057FCDCB98F
:101E0000B31C0093092223461021284601F04EFC02
:101E100019247388B3F5807FE7D837467288BB1BD7
:101E2000934210D32B7FA88A0734E408B3B98442C5
:101E300094BF00200120D9E7AB8ADB00103BDB0810
:101E400073801024E5E73B1D009321460023082200
:101E5000284601F02BFC08340137DFE7201A18BFB1
:101E60000120C3E730B5094D0A4491420DD011F865
:101E7000013B5840082340F30004013B2C4013F081
:101E8000FF0384EA5000F6D1EFE730BD2083B8EDC0
:101E9000F7B54FF0FF33DFF854C0DFF854E000EB44
:101EA00081011A4688421CD050F8044B019401AFBE
:101EB000042417F8015B82EA05620825DB18164640
:101EC00005F1FF355241002EBCBF83EA0C0382EAC4
:101ED0000E0215F0FF05F1D1013C14F0FF04E8D12A
:101EE000E0E7D843D14303B0F0BD00BF9336EAA981
:101EF000EBE1F042F7B5384A106851686B4603C30E
:101F00006A4636493648082304F0B2FD04460028E4
:101F100033D10A25334A106851686B4603C36A46B9
:101F200031492F48082304F0A3FD0446002849D076
:101F30000369B3F5F81F45D8B0F8661040F27A523D
:101F400091423FD1294A024402F15C018B4239D3CC
:101F50005C3B234900209E1AFFF784FF3246074668
:101F600004F164010020FFF77DFFA3689F4229D19F
:101F7000E368984208BF002524E00369B3F5F81F21
:101F800027D8418B40F27A52914220D1174A02441D
:101F900002F110018B4218D3103B114900209D1A09
:101FA000FFF760FF2A46064604F118010020FFF7FC
:101FB00059FFA3689E4202D1E368984201D00D25E3
:101FC000A8E70025284603B0F0BD1025A2E70C25A0
:101FD000A0E70B259EE700BF646B0008DCFF1E0036
:101FE000000001086D6B000890FF1E000800FFF75D
:101FF00010B5037C044613B9006804F021FD2046A7
:1020000010BD00000023BFF35B8FC360BFF35B8F85
:10201000BFF35B8F8360BFF35B8F7047BFF35B8F52
:102020000068BFF35B8F704770B505460C30FFF753
:10203000F5FF05F1080604463046FFF7EFFFA04222
:1020400006D930466D68FFF7E9FF2544281A70BDB0
:102050003046FFF7E3FF201AF9E7000070B50546A8
:10206000406898B105F10800FFF7D8FF05F10C06AC
:1020700004463046FFF7D2FF8442304694BF6D6875
:102080000025FFF7CBFF013C2C44201A70BD000057
:1020900038B50C460546FFF7C7FFA04210D305F13F
:1020A0000800FFF7BBFF04446868B4FBF0F100FBD5
:1020B0001144BFF35B8F0120AC60BFF35B8F38BD71
:1020C0000020FCE72DE9F041144607460D46FFF7D6
:1020D000C5FF844228BF0446D4B1B84658F80C6BFB
:1020E0004046FFF79BFF3044286040467E68FFF77C
:1020F00095FF331A9C4203D86C600120BDE8F08143
:102100006B60A41B3B68AB602044E8600220F5E7ED
:102110002046F3E738B50C460546FFF79FFFA0427F
:1021200010D305F10C00FFF779FF04446868B4FB95
:10213000F0F100FB1144BFF35B8F0120EC60BFF3B3
:102140005B8F38BD0020FCE72DE9FF4188466946DA
:102150000746FFF7B7FF6C4606B204EBC60600253C
:10216000B44209D06268206808EB0501FFF786FBDE
:10217000636808341D44F3E729463846FFF7CAFF71
:10218000284604B0BDE8F081F8B505460C300F468E
:10219000FFF744FF05F1080604463046FFF73EFF0F
:1021A000A042304688BF6C68FFF738FF201A3860BD
:1021B00020B130462C68FFF731FF2044F8BD000005
:1021C00073B5144606460D46FFF72EFF844228BF1E
:1021D00004460190DCB101A93046FFF7D5FF019B11
:1021E00033B93268C5E90233C5E9002401200CE0A7
:1021F0009C4238BF01942860019868608442F5D9F8
:102200003368AB60241AEC60022002B070BD204637
:10221000FBE700002DE9FF410F466946FFF7D0FFBD
:102220006C4600B204EBC0050026AC4209D0D4F8DD
:10223000048054F8081BB8194246FFF71FFB4644B8
:10224000F3E7304604B0BDE8F081000038B505463C
:10225000FFF7E0FF044601462846FFF719FF204636
:1022600038BD00000121884238BF084604F0D2BBC7
:1022700008B104F0E5BB704710B4026854681A4610
:1022800023465DF8044B1847002070470020704734
:1022900070470000002070470E20704700F5805006
:1022A00090F8D800C0F340007047000000F580505F
:1022B00090F9E0007047000000F58050C0F8DC1095
:1022C00001207047F7B50C68BDF8207014F0005479
:1022D00073D10D7B082D70D8302585F31188456AA0
:1022E000AE6876010CD4AC68240108D4AC6814F054
:1022F000805460D184F31188204603B0F0BD0124DE
:102300000E6804F1180C002EB8BFF6004FEA0C1C42
:10231000B4BF46F00406760545F80C600E680FFA67
:1023200084FC16F0804F18BF05EB0C1E05EB0C1C4F
:102330001EBFDEF8806146F00206CEF880610E7B9B
:10234000CCF8846105EB04158E68C5F88C614E6885
:10235000C5F88861DCF8805145F00105CCF8805162
:1023600041F2780500EB441C660105EB4414AC44D3
:102370000444CCE900230D46083401F10C0C55F857
:1023800004EB44F804EB6545F9D12D8825808419C8
:1023900004F5805407F0030594F8946026F00B06CA
:1023A000354384F89450002484F31188009700F09A
:1023B0003BFD0120A1E70224A2E74FF0FF309CE79C
:1023C00013B500F580540191E06EFFF747FE1F281A
:1023D0000AD90199E06E2022FFF7B6FEA0F1200392
:1023E0005842584102B010BD0020FBE708B5302329
:1023F00083F3118800F58050C06EFFF703FE0023C1
:1024000083F3118808BD00000022026082814260CF
:102410008260704710B500220023C0E9002300232A
:10242000044603810C30FFF7EFFF204610BD00008B
:10243000F0B5054600F580500C4690F8D83013F002
:10244000040FC3F3800108BF114661F3820380F8D3
:10245000D83005EB441303F58453103389B01B794E
:10246000D8074FEA44162FD582B319072ED46846F1
:10247000FFF7D0FF05EB441303F5845303AA03F1E0
:10248000080718685968144603C40833BB4222463B
:10249000F7D1186820609B88A380DDE90E23CDE981
:1024A00000230123ADF808302B6869461B6C2846D1
:1024B0009847354405F5845510352B791A075CBFCC
:1024C00043F008032B7101E0002AF2D109B0F0BDFE
:1024D0002DE9F0479A4688B0074688469146302352
:1024E00083F3118807F580546846FFF793FFE06E89
:1024F000FFF79AFD1F282AD9E06E20226946FFF7D0
:10250000A5FE202823D103AD444605AB2E4603CEBD
:102510009E4220606160354604F10804F6D13068BF
:102520002060B388A380DDE90023C9E90023BDF85A
:102530000830AAF80030002383F3118853464A4636
:102540004146384608B0BDE8F04700F02BBC0020FB
:1025500080F3118808B0BDE8F08700002DE9F84F3E
:10256000182204460F4604300021FFF7ADF920463B
:10257000234B40F8283BFFF747FF04F13800FFF7F3
:1025800049FF04F1580804F582554646183530468F
:102590002036FFF73FFFAE42F9D104F580554FF4E6
:1025A00080534FF00009C5E91739C5F85880012359
:1025B000EE6604F5875804F58456C5F8649085F8EE
:1025C000683085F87030183608F118084FF0000AA6
:1025D0004FF0000B46E908ABA6F11800FFF714FF17
:1025E000203646F8289C4645F4D185F8E07017B1AE
:1025F000044800F0C3FB044B63622046BDE8F88F3B
:10260000A06B0008786B00080064004010B5044B14
:10261000197804464A1C1A70FFF7A0FF204610BD27
:10262000984B00202DE9F047002950D0294B2A4F24
:10263000B7FBF1F599428CBF0A231123581EB5FB55
:10264000F3FC03FB1C53C4B22BB102280346F5D89C
:102650000020BDE8F0870CF1FF36B6F5806FF7D2A9
:10266000C4EBC40E0EF103034FEAE309C3F3C7033F
:10267000A4EB030809F1010A4FF47A755FFA88F0B8
:1026800009FB05555AFA88F8B5FBF8F5B5F5617FF1
:10269000C1BF0EF1FF33C3F3C703E01AC0B25C1C25
:1026A00050FA84F40CFB04F4B7FBF4F4A142CFD14C
:1026B000013BDBB20F2BCBD80138C0B20728C7D8FB
:1026C0000021107116809170D3700120C1E7084677
:1026D000BFE700BF3F420F0080DE800270B50546B5
:1026E0000E464FF47A746B6A5B6803F00103B342E1
:1026F00007D04FF47A7002F005FC013CF3D120467C
:1027000070BD0120FCE7000070B5426A936913F0C8
:10271000700F17D000230C4D936141F2900400EB31
:102720004312224411794E0709D5890707D5416A1A
:1027300055F823608E60117941F004011171013365
:10274000032BECD170BD00BF8C6B000873B51D4628
:10275000436A16469A68D207044609D59A68012149
:102760009960C2F34002CDE900650021FFF760FEE9
:10277000636A9A68D1050BD59A684FF480719960A5
:10278000C2F34022CDE9006501212046FFF750FE4B
:10279000636A9A68D2030BD59A684FF480319960C6
:1027A000C2F34042CDE9006502212046FFF740FE1A
:1027B00004F58053D3F8DC0010B103681B69984717
:1027C000204602B0BDE87040FFF79EBFF8B5044652
:1027D000466A002977D106F10C073868800775D062
:1027E00006EB01153868D5F8B00110F0040FD5F8E4
:1027F000B0011ABFC00840F00040400DA062D5F8FB
:10280000B0C11CF0020F1CBF40F08040A062D5F8A0
:10281000B40106EB011100F00F0084F83400D1F888
:10282000B80184F82C00D1F8B801000A84F82D0012
:10283000D1F8B801000C84F82E00D1F8B801000ED0
:1028400084F82F00D1F8BC0184F83000D1F8BC0125
:10285000000A84F83100D1F8BC01000C84F8320081
:10286000D1F8BC11090E84F833103821396004F115
:10287000440004F1280104F1340551F8046B40F8D8
:10288000046BA942F9D109880180C4E90E232146CD
:102890000023A4F8403051F8383B20461B6C984781
:1028A00004F5805393F8D820D3F8DC0042F00402FA
:1028B00083F8D82010B103681B6998472046BDE80B
:1028C000F840FFF721BF06F1100786E7F8BD0000CA
:1028D00010B5044600F05AFA02460B4652EA0301CC
:1028E00002D0013A63F100030449086820B121468F
:1028F000BDE81040FFF76ABF10BD00BF944B002039
:10290000F0B5302181F31188DFF848E000F58351FC
:102910001831002441F2900C00EB441565442E79E7
:1029200077070ED4F6060CD5D1E9007697429E4182
:1029300007D2466A5EF82470B7602E7946F0040626
:102940002E710134032C01F12001E5D1002383F322
:102950001188F0BD8C6B000808B5302383F3118813
:10296000FFF7D2FE002383F3118808BD2DE9F04163
:10297000436A0446986800F0E050B0F1E05F0E460C
:1029800022D0F8B1302383F31188002504F5845751
:1029900041F2900804EB451343441B791A0706D50E
:1029A0000135032D07F12007F4D1012007E05B0773
:1029B000F6D43946304600F08BFA0028F0D10023D7
:1029C00083F31188BDE8F0810120FBE708B53023CF
:1029D00083F3118800F58050C06EFFF725FB0023BC
:1029E00083F3118843090CBF0120002008BD0000BB
:1029F000F8B51D46002313700F4606461446FFF730
:102A0000E5FF80F00100387025B129463046FFF718
:102A1000ADFF2070F8BD00002DE9B8410C46154609
:102A20001F46804600F0B2F90B462178024609B9EC
:102A3000287850B14046FFF763FFFFF78DFF3B4614
:102A40002A462146FFF7D4FF0120BDE8B8810000E7
:102A500070B5302686F31188174B1A6C42F000725D
:102A60001A641A6A42F000721A621A6A22F000723C
:102A70001A62002383F3118800F5805494F8D8304B
:102A800013F0010516D1A9B186F311880321132093
:102A900001F022FB0321142001F01EFB032115206D
:102AA00001F01AFB94F8D83043F0010384F8D830D1
:102AB00085F3118870BD00BF003802402DE9F04752
:102AC00000F5805588B095F8E030012B0446884623
:102AD000164600F28280824F57F823200AB947F841
:102AE0002300D7F800A0C4F81C8084F82060BAF155
:102AF000000F64D095F8E030012B70D00121204602
:102B0000FFF7A6FF302383F31188626A136823F06E
:102B100002031360626A136843F001031360636A7F
:102B200000275F6187F3118801212046FFF7D6FD5A
:102B3000002800F09580E86EFFF764FA04F58359E9
:102B4000BA4609F11809202200216846FEF7BCFEAA
:102B500002A8FFF759FCCDF818A06A4609EB070355
:102B60000DF1180E9446BCE80300F4451860596056
:102B7000624603F10803F5D1DCF800001860203745
:102B80009CF804201A71602FDDD195F8D8306FF3CE
:102B90008203002785F8D8306A4641462046ADF8C2
:102BA0000070ADF802708DF80470FFF73BFD636AAA
:102BB00048BB4FF400421A6008B0BDE8F08741F20C
:102BC000E800FFF74FFB814610B15146FFF7C6FC06
:102BD000C7F80090B9F1000F8CD10020ECE73868FD
:102BE00003681B6B98470146002887D13868FFF7B8
:102BF0002FFF3868036832465B68414698470028D3
:102C00007FF47CAFE9E761221A609DF802309DF8FD
:102C100003201B06120402F4702203F040731343D6
:102C2000BDF80020C2F3090213439DF804201205E9
:102C3000022E02F4E0020CBF4FF0004100211343CA
:102C4000626A0B43D361636A13225A61626A136832
:102C500023F00103136039462046FFF73FFD08B912
:102C6000636AA6E795F8E03093BB616AD1F8002269
:102C700042F00102C1F80022616AD1F8002222F478
:102C80007C5222F00E02C1F80022616AD1F80022C3
:102C900042F46062C1F80022626AC2F81432626AC9
:102CA000C2F80432626A41F6FF71C2F80C12626A1D
:102CB000C2F84032626AC2F84432636A0122C3F841
:102CC0001C22626AD2F8003223F00103C2F80032FB
:102CD00095F8D83043F0020385F8D8306CE700BF90
:102CE000944B002008B500F051F850EA0103024669
:102CF00002D0421E61F10001044B186810B10B466E
:102D0000FFF724FDBDE8084001F0C8B8944B00204F
:102D100008B50020FFF7DCFDBDE8084001F0BEB8B3
:102D200008B50120FFF7D4FDBDE8084001F0B6B8B2
:102D300000B59BB0EFF3098168226846FEF79EFD5F
:102D4000EFF30583014B9B6BFEE700BF00ED00E056
:102D500008B5FFF7EDFF000000B59BB0EFF3098168
:102D600068226846FEF78AFDEFF30583014B5B6B33
:102D7000FEE700BF00ED00E0FEE700000FB408B57D
:102D8000029802F065F8FEE702F0EEBC02F0D0BC5B
:102D90000139C9B202299EBF00EBC1000023C0E97E
:102DA000013370472DE9F8431E461B885B07054633
:102DB000884618D4044600F118094C4513D06368BE
:102DC0006BB12B682846DB6B98473388A768C1B284
:102DD00043F0040360684246B8470834EDE7A3684F
:102DE000002BEED1F9E70120BDE8F88373B56C46FE
:102DF00084E80600014600224E68D5B26EB98E689E
:102E00005EB900EBC200021D94E80300013582E8C0
:102E100003001D70012002B070BD0132032A01F1D0
:102E20000801E9D10020F6E72DE9F04F2DED028BE6
:102E300089B09FED258BBDF8508004468B46054632
:102E400000F11809002708F0040AA94536D06B687C
:102E50000BB9AB6863B1BAF1000F0BD12368204600
:102E6000DB6B98474346C1B25A46D5E90106B047E5
:102E70000835EAE7002FFBD18DED008BADF8087027
:102E80005B4603AA0BF1080C18685968174603C77C
:102E9000083363453A46F7D1186838609B88BB8091
:102EA000FFF774FF0423ADF808302368CDE9000173
:102EB0001B6C6946204698470127D9E7012009B0D5
:102EC000BDEC028BBDE8F08F0000000000000000A8
:102ED00030B503680968DD0FB5EBD17F23F060449E
:102EE00021F060424FEAD1700BD0002BB8BFA40C88
:102EF0000029B8BF920C944202D034BF01200020B8
:102F000030BD944205D1C1F38070C3F38073834216
:102F1000F6D194422CBF00200120F1E72DE9F041C9
:102F2000456A15B94162BDE8F0814B6823F06047FE
:102F3000C3F38A464FEAD37EC3F3807816EA2306AA
:102F400038BF3E46AC462B465A68BEEBD27F22F0D5
:102F500060440AD0002A18DAA40CB44217D19D426A
:102F60000FD10D60DEE71346EEE7A74207D102F06E
:102F70008044C2F3807242450BD054B1EFE708D2CF
:102F8000EDE7CCF800100B60CDE7B44201D0B442BD
:102F9000E5D81A689C46002AE5D11960C3E700000D
:102FA0002DE9F047089D01F007044FEAD5082244B7
:102FB00005F0070500EBD1004FF47F49944201D1A1
:102FC000BDE8F08704F0070705F0070A57453E46BD
:102FD00038BF5646C6F10806111B8E4228BF0E4662
:102FE000E10808EBD50E415C13F80EC0B94029FA90
:102FF00006F721FA0AF1FFB28CEA010147FA0AF753
:1030000039408CEA010C03F80EC034443544D5E74E
:1030100080EA0120082341F2210201B24000002988
:1030200080B203F1FF33B8BF504013F0FF03F4D177
:103030007047000038B50C468D18A54200D138BD48
:1030400014F8011BFFF7E4FFF7E7000042684AB1FC
:10305000136843604389818901339BB2994243815C
:1030600038BF83811046704770B588B0202204466F
:103070000D4668460021FEF727FC20460495FFF721
:10308000E5FF024658B16B46054608AE1C4603CC28
:10309000B44228606960234605F10805F6D1104660
:1030A00008B070BD082817D909280CD00A280CD000
:1030B0000B280CD00C280CD00D280CD00E2814BFD7
:1030C0004020302070470C2070471020704714209B
:1030D000704718207047202070470000082817D933
:1030E0000C280CD910280CD914280CD918280CD964
:1030F00020280CD930288CBF0F200E2070470920C3
:1031000070470A2070470B2070470C2070470D2035
:10311000704700002DE9F843078C072F04461ED99D
:10312000D0E9029800254FF6FF73C5F12006A5F1FE
:10313000200029FA05F108FA06F628FA00F03143D2
:103140000143C9B21846FFF763FF0835402D034617
:10315000EBD1E1693A46BDE8F843FFF76BBF4FF6A4
:10316000FF70BDE8F883000010B54B6823B9CA8A28
:1031700063F30902CA8210BD04691A681C60036106
:10318000C38A013BC3824A60EFE700002DE9F84F94
:103190001D46CB8A0F46C3F3090105298146924695
:1031A0000B4630D00020AAB207F11A049EB2042EBA
:1031B0001FFA80F80FD8904503F1010306D3FB8A6C
:1031C0000A4462F30903FB8201201AE01AF8006046
:1031D000E6540130EAE79045F1D2A1F1050B1C233A
:1031E0007C68BBFBF3F203FB12BB1FFA8BF6002CCF
:1031F00045D14846FFF72AFF044638B978606FF09A
:103200000200BDE8F88F4FF00008E6E700260660F0
:103210007860ADB24FF0000B454510D90AEB0803BA
:10322000221D13F8011B9155B1B208F101081B29A9
:103230001FFA88F82BD0454506F10106F1D8FB8A24
:10324000C3F30902154465F30903BCE7013292B2E6
:103250001C462368002BF9D16B1F0B441C21B3FBC8
:10326000F1F301339BB29A42D3D2BBF1000FD0D11C
:103270004846FFF7EBFE20B9C4F800B0BFE70122D3
:10328000E7E7C0F800B05E4620600446C1E7454568
:10329000D5D94846FFF7DAFE08B92060AFE7C0F895
:1032A00000B0002620600446B6E700002DE9F04F8C
:1032B0002DED028B1C4683B05B6901920746884660
:1032C000002B00F0A780238C2BB1E269002A00F0CC
:1032D000A180072B35D807F10C00FFF7B7FE054694
:1032E00038B96FF00205284603B0BDEC028BBDE88B
:1032F000F08F14220021FEF7E7FA228CE16905F134
:103300000800FEF7BBFA208C013080B2FFF7E6FE22
:10331000FFF7C8FE013880B2208401302874636949
:10332000228C1B782A4403F01F0363F03F0348F00C
:1033300000411372384669602946FFF7EFFD012509
:10334000D1E702339BB20722C18A0633B3FBF2F303
:10335000828A521A9BB292B29342C2D800F10C03F5
:103360004FF0000908EE103A4FF0800A4E464D46E5
:1033700018EE100AFFF76AFE83460028B1D0142227
:103380000021FEF7A1FA002E3AD1019BABF80830DC
:1033900002220BF1080E1FFA82FC0CF10100BCF1B5
:1033A000060F218C80B201D88E422BD3FFF796FEF8
:1033B000FFF778FE62691278013802F01F028E4230
:1033C00008BF4FF0400A42EA49121BFA80F14AEA6C
:1033D000020A013048F0004281F808A08BF8100082
:1033E000CBF8042059463846FFF798FD238C013569
:1033F000B3422DB289F001094FF0000AB8D172E74B
:103400000022C6E7E169895D0EF802100136B6B206
:103410000132C0E76FF0010565E70000F8B5154619
:103420000E463022002104461F46FEF74DFA069B49
:103430006360B5F5001F079BA76034BF6A094FF6AC
:10344000FF72A36297B2E66104F1100000239A4272
:1034500006D800230360A782E3822383E360F8BDDC
:103460000660013330462036F1E7000003781BB9CF
:103470004BB2002BC8BF0170704700000078704746
:10348000F8B50C46C969074611B9238C002B37D112
:10349000257E1F2D34D8387828BB228C072A2CD8BB
:1034A000268A36F003032BD14FF6FF70FFF7C2FDDB
:1034B00020F001003102400441EA0561400C41EA7C
:1034C00040254FF6FF72234629463846FFF7EEFEA9
:1034D000002807DD626913780133DBB21F2B88BF38
:1034E00000231370F8BD218A2D0645EA0125054306
:1034F0002046FFF70FFE0246E5E76FF00300F1E715
:103500006FF00100EEE7000070B58AB00446164681
:103510000021282268461D46FEF7D6F9BDF838304E
:10352000ADF810300F9B05939DF840308DF81830A2
:10353000119B07936946BDF84830ADF8203020460E
:10354000CDE90265FFF79CFF0AB070BD2DE9F0419F
:10355000D36905460C4616460BB9138C5BBB377E08
:103560001F2F28D895F80080B8F1000F26D03046DC
:10357000FFF7D0FD3378210241EAC33141EA080167
:10358000338A41EA076141EA03410246334641F08A
:1035900080012846FFF78AFE00280ADD3378012BD8
:1035A00007D1726913780133DBB21F2B88BF002368
:1035B0001370BDE8F0816FF00100FAE76FF00300CF
:1035C000F7E70000F0B58BB004460D461746002122
:1035D000282268461E46FEF777F99DF84C305A1EA1
:1035E000534253418DF800309DF84030ADF8103013
:1035F000119B05939DF848308DF81830149B079364
:103600006A46BDF85430ADF8203029462046CDE951
:103610000276FFF79BFF0BB0F0BD0000406A00B1DF
:1036200004307047436A1A68426202691A60036193
:10363000C38A013BC38270472DE9F041D0F8208056
:10364000194E14461D464146002709B9BDE8F081D0
:10365000D1E90223A21A65EB0303964277EB030339
:103660001ED2036A8B420DD1FFF77EFD036A1B68F1
:10367000036203690B60C38A0161016A013BC38273
:103680008846E2E7FFF770FD0B68C8F80030036971
:103690000B60C38A0161013BC382D8F80010D4E7F4
:1036A00088460968D1E700BF80841E002DE9F04FED
:1036B0008BB00D46DDF8509014469B46804600289E
:1036C00000F01981B9F1000F00F01581531E3F2B56
:1036D00000F21181012A03D1BBF1000F40F00B81F0
:1036E0000023CDE90833B8F81430B5EBC30F4FEA27
:1036F000C30703D300200BB0BDE8F08F2B199F4206
:10370000D8F80C303ABF7F1BFFB227461BB9D8F858
:103710001030002B7AD0272D4ED8C5F12806B7429D
:103720004FF000032CBFF6B23E4600932946D8F86E
:10373000080008AB3246FFF733FCA7EB060A354416
:103740005FFA8AFAB8F8143003F10053053BDB0046
:103750000493D8F80C3003932821039B13B1BAF1DA
:10376000000F2CD1D8F8100040B1BAF1000F05D0ED
:10377000009608AB5246691AFFF712FC38B2002FC8
:10378000B8D066070AD00AAB03EBD401624211F845
:10379000083C02F00702134101F8083C082C3CD910
:1037A000102C40F2B580202C40F2B780BBF1000F06
:1037B00000F09C80082334E0BA460026C2E7049B50
:1037C000E02B28BFE02306930B44AB42059314D9AA
:1037D0005A1B03980096924534BF5246D2B2691ADA
:1037E00008AB04300792FFF7DBFB079A1644AAEBFD
:1037F000020A1544F6B25FFA8AFA049B069A059902
:103800009B1A0493039B1B680393A6E70093D8F8C5
:10381000080008AB3A462946AEE7BBF1000F13D0CB
:103820000123B4EBC30F6CD0082C12D89DF82030C4
:10383000621E23FA02F2D50706D54FF0FF3202FAD4
:1038400004F423438DF820309DF8203089F80030AF
:1038500051E7102C12D8BDF82030621E23FA02F274
:10386000D10706D54FF0FF3202FA04F42343ADF836
:103870002030BDF82030A9F800303CE7202C0FD8CC
:103880000899631E21FA03F3DA0705D54FF0FF32DA
:1038900002FA04F40C430894089BC9F800302AE7A4
:1038A000402C2BD0DDE90865611EC4F12102A4F192
:1038B000210326FA01F105FA02F225FA03F3114376
:1038C0001943CB0712D50122A4F12003C4F1200132
:1038D00002FA03F322FA01F1A240524243EA010341
:1038E00063EB430332432B43CDE90823DDE908238F
:1038F000C9E90023FFE66FF00100FCE66FF0080065
:10390000F9E6082CA0D9102CB3D9202CEED8C3E7A7
:10391000BBF1000FADD0022383E7BBF1000FBBD09A
:1039200004237EE730B5012A144638BF0124402C19
:1039300085B028BF40240025012ACDE9025518D8BA
:103940001B788DF8083063070AD004AB03EBD4056D
:10395000624215F8083C02F00702934005F8083C63
:10396000009103462246002102A8FFF719FB05B08B
:1039700030BD082AE4D9102A03D81B88ADF80830D6
:10398000E1E7202A8DBFD3E900231B680293CDE92C
:103990000223D8E710B5CB681BB98B600B618B8213
:1039A00010BD04691A681C600361C38A013BC382AD
:1039B000CA60F0E703064CBFC0F3C0300220704776
:1039C00008B50246FFF7F6FF022806D15306C2F3F8
:1039D0000F2001D100F0030008BDC2F30740FBE750
:1039E0002DE9F04F93B0CDE904230A680446104650
:1039F000FFF7E0FF022814BFC2F306260026002AC4
:103A00000D46824680F2028212F0C04940F0FE81EB
:103A1000097B002900F0FA81022803D02378B34201
:103A200040F0F781C2F304630693104602F07F036F
:103A30000393FFF7C5FF039B29444FEA834848EAF5
:103A40000A4848EA4668CE7800230022CDE90823D8
:103A5000F309834648EA0008029367D0039B00936A
:103A600002466768534608A92046B847002868D030
:103A7000276A4FB9414604F10C00FFF7F5FA0746F3
:103A800090B96FF002006AE03B6998450DD03F683D
:103A9000002FF9D1414604F10C00FFF7E5FA074683
:103AA0000028EED0236A3B60276297F817C006F023
:103AB0001F08CCF3840CACEB08001FFA80FE002832
:103AC000B8BF0EF12000A8EB0C031FFA83FED7E964
:103AD0000221B8BF00B2002B0793BEBF0EF1200336
:103AE0001BB2079352EA010342D0049BDFF834E390
:103AF0009A1A059B4FF0000C63EB010196457CEB95
:103B0000010335D36B7B97F81AE0734521D1029BF3
:103B1000002B00F0848001282ADC786840BBDFF8A5
:103B200000C3944570EB010343D21EE0276A5FB9DE
:103B3000039B0093656853465A4608A92046A84748
:103B400068BB6FF00B000AE03B699845ADD03F6859
:103B5000EDE7B34890427CEB010303D3002013B0A0
:103B6000BDE8F08F029B002BF8D0079B0F2B19DCD0
:103B7000FA7DB30002F0030203F07C031343FB75EC
:103B800039462046FFF7F0FA6B7BBB76029B4BB9B8
:103B9000FB7DC3F38402013262F38603FB756FF091
:103BA0000C00DCE76A7BBB7E9A42D7D1029B002BDC
:103BB00035D0B309022B32D0049BBB60059BFB6060
:103BC000142200210DA8FDF77FFE049B0A93059B9C
:103BD0000B932B1D0C932B7BADF83EB0013BDBB25E
:103BE000ADF83C30069B8DF84230039B8DF8433096
:103BF00094F82C308DF840A083F001038DF8443008
:103C00008DF84180A3680AA920469847FB7DC3F33D
:103C10008403013303F01F039B02FB829EE7FB7DBD
:103C2000C6F34012B2EBD31F40F0F680C3F3840317
:103C3000434540F0F980029A2B7BB609002A52D006
:103C400016F0010661D1032B40F2F180049BBB60AA
:103C5000059BFB60FB8A66F30903FB822B7BAE1D91
:103C6000033BDBB23246394604F10C00FFF78EFA13
:103C700000280CDA39462046FFF776FAFB7DC3F3BD
:103C80008403013303F01F039B02FB82F9E6DDE9A5
:103C90000884AB883B834FF6FF73C9F12000A9F17C
:103CA000200228FA09F104FA00F0014324FA02F292
:103CB00011431846C9B2FFF7ABF909F10809B9F188
:103CC000400F0346E9D1B8822A7B033AD2B231468B
:103CD000FFF7B0F9FB7DB882DA43C2F3C01262F39A
:103CE000C713FB753AE786B92E1D013BDBB232469E
:103CF000394604F10C00FFF749FA0028BADB2A7BA9
:103D0000B88A013AD2B23146E2E7F98AC1F3090131
:103D1000013B0429DAB25BD8281D002307F11B06FA
:103D20009A4208D910F801CB06F801C001310133DD
:103D30000529DBB2F4D104990A9105990B919342BC
:103D400007F11B010C9138BF043379680D9134BF22
:103D500055FA83F300230E93FB8AADF83EB0C3F30C
:103D600009031A44069B8DF84230039B8DF84330BB
:103D700094F82C30ADF83C2083F001038DF84430EA
:103D800000238DF840A08DF841807B602A7BB88AA3
:103D9000013A291DFFF74EF93B8BB882834203D1CC
:103DA000A3680AA92046984720460AA9FFF7F2FD12
:103DB000FB7DBA8AC3F38403013303F01F039B0224
:103DC000FB823B8B9A420CBF00206FF01000C6E6CE
:103DD0007B68002BAFD0052001E01C3033461E6805
:103DE000002EFAD1091A081D2E1D184401EB090CEA
:103DF000BCF11B0F5FFA89F39DD89A429BD916F844
:103E0000013B00F8013B09F10109EFE76FF0090000
:103E1000A5E66FF00A00A2E66FF00D009FE600BF76
:103E200040420F0080841E006FF00E0097E66FF096
:103E30000F0094E6EFF3098305494A6B22F0010273
:103E40004A63683383F30988002383F3118870473A
:103E500000EF00E0302080F3118862B60C4B0D4A71
:103E6000D96821F4E0610904090C0A43DA60D3F847
:103E7000FC20094942F08072C3F8FC200A6842F035
:103E800001020A602022DA7783F82200704700BF1F
:103E900000ED00E00003FA05001000E010B530234B
:103EA00083F311880E4B5B6813F4006314D0F1EEBA
:103EB000103AEFF30984683C4FF08073E361094BDB
:103EC000DB6B236684F3098800F08CFF10B1064B8E
:103ED000A36110BD054BFBE783F31188F9E700BF31
:103EE00000ED00E000EF00E03F030008420300089F
:103EF000026843681143016003B11847704700002E
:103F0000024AD36843F0C003D360704700440040C6
:103F100010B5054C054A0021204600F087FA044AF6
:103F2000044BC4E9972310BDA04B0020013F0008BB
:103F30000044004080DE8002234A037C002918BF31
:103F40000A46012B30B5C0F868220CD11F4B9842AD
:103F500009D11F4B196C41F400311964196E41F4F9
:103F6000003119661B6EB2F904501468D0F8603243
:103F7000D0F85C12002D03EB5403B3FBF4F3BEBF87
:103F800023F0070503F0070343EA450394888B6099
:103F9000D38843F040030B61138943F001034B6165
:103FA00044F4045343F02C03CB6004F4A0540023E6
:103FB0000B60B4F5806F0B684B680CBF7F23FF2349
:103FC00080F8643230BD00BFE46B0008A04B0020D5
:103FD000003802402DE9F041D0F85C62F7683368A0
:103FE000DA0504469DB20DD5302383F311884FF4D2
:103FF00080610430FFF77CFF6FF48073336000232F
:1040000083F31188302383F3118804F1040815F039
:104010002F033AD183F31188380615D5290613D515
:10402000302383F3118804F1380000F07BF9002875
:104030004EDA0821201DFFF75BFF4FF67F733B40F0
:10404000F360002383F311887A0616D56B0614D526
:10405000302383F31188D4E913239A420AD1236CC5
:1040600043B127F040073F041021201D3F0CFFF70C
:104070003FFFF760002383F31188D4F86822D368E8
:1040800043B3BDE8F041106918472B0714D015F071
:10409000080F0CBF00214FF48071E80748BF41F0C2
:1040A0002001AA0748BF41F040016B0748BF41F01B
:1040B00080014046FFF71CFFAD06736805D594F8F4
:1040C00064122046194000F0E1F93568ADB29EE770
:1040D0007060B6E7BDE8F08100F1604303F561432D
:1040E0000901C9B283F80013012200F01F039A40AE
:1040F00043099B0003F1604303F56143C3F880214A
:104100001A607047F8B5154682680669AA420B46E0
:10411000816938BF8568761AB54204460BD21846C5
:104120002A46FDF7ABFBA3692B44A361A3685B1B85
:10413000A3602846F8BD0CD918463246FDF79EFB11
:10414000AF1BE1683A463044FDF798FBE3683B4417
:10415000EBE718462A46FDF791FBE368E5E7000028
:1041600083689342F7B51546044638BF8568D0E9A1
:104170000460361AB5420BD22A46FDF77FFB63690D
:104180002B446361A36828465B1BA36003B0F0BDAA
:104190000DD932460191FDF771FB0199E068AF1B23
:1041A0003A463144FDF76AFBE3683B44E9E72A46B7
:1041B000FDF764FBE368E4E710B50A440024C3613B
:1041C000029B8460C0E90000C0E90511C160026182
:1041D000036210BD08B5D0E90532934201D182686F
:1041E00082B98268013282605A1C42611970D0E93A
:1041F00004329A4224BFC3684361002100F09EFE4E
:10420000002008BD4FF0FF30FBE7000070B5302301
:1042100004460E4683F31188A568A5B1A368A26978
:10422000013BA360531CA36115782269934224BF0C
:10423000E368A361E3690BB120469847002383F349
:104240001188284607E03146204600F067FE002826
:10425000E2DA85F3118870BD2DE9F74F04460E466A
:1042600017469846D0F81C904FF0300A8AF3118810
:104270004FF0000B154665B12A4631462046FFF740
:1042800041FF034660B94146204600F047FE002842
:10429000F1D0002383F31188781B03B0BDE8F08FC1
:1042A000B9F1000F03D001902046C847019B8BF362
:1042B0001188ED1A1E448AF31188DCE7C0E9051164
:1042C000C160C3611144009B8260C0E900000161CC
:1042D00003627047F8B504460D461646302383F353
:1042E0001188A768A7B1A368013BA36063695A1C42
:1042F00062611D70D4E904329A4224BFE3686361AD
:10430000E3690BB120469847002080F3118807E04D
:104310003146204600F002FE0028E2DA87F31188D9
:10432000F8BD0000D0E905239A4210B501D182689A
:104330007AB98268013282605A1C82611C780369F2
:104340009A4224BFC3688361002100F0F7FD204634
:1043500010BD4FF0FF30FBE72DE9F74F04460E4646
:1043600017469846D0F81C904FF0300A8AF311880F
:104370004FF0000B154665B12A4631462046FFF73F
:10438000EFFE034660B94146204600F0C7FD002815
:10439000F1D0002383F31188781B03B0BDE8F08FC0
:1043A000B9F1000F03D001902046C847019B8BF361
:1043B0001188ED1A1E448AF31188DCE7026843680D
:1043C0001143016003B11847704700001430FFF734
:1043D00043BF00004FF0FF331430FFF73DBF000034
:1043E0003830FFF7B9BF00004FF0FF333830FFF728
:1043F000B3BF00001430FFF709BF00004FF0FF31DA
:104400001430FFF703BF00003830FFF763BF000030
:104410004FF0FF323830FFF75DBF0000012914BFB5
:104420006FF0130000207047FFF772BD37B51546D7
:104430000E4A026000224260C0E9022201220446C4
:1044400002740B46009000F15C014FF4807214304E
:10445000FFF7B2FE00942B464FF4807204F5AE7164
:1044600004F13800FFF72AFF03B030BDF86B0008F5
:1044700010B53023044683F31188FFF75DFD022356
:104480002374002080F3118810BD000038B5C36983
:1044900004460D461BB904210844FFF78FFF294647
:1044A00004F11400FFF796FE002806DA201D4FF4F1
:1044B0000061BDE83840FFF781BF38BD026843683E
:1044C0001143016003B118477047000013B5446BF6
:1044D000D4F894341A681178042915D1217C022962
:1044E00012D11979128901238B4013420CD101A9F1
:1044F00004F14C0001F0B8FFD4F89444019B2179F9
:104500000246206800F0D0F902B010BD143001F06E
:104510003BBF00004FF0FF33143001F035BF000007
:104520004C3002F00DB800004FF0FF334C3002F079
:1045300007B80000143001F009BF00004FF0FF3150
:10454000143001F003BF00004C3001F0D9BF00006F
:104550004FF0FF324C3001F0D3BF00000020704715
:1045600010B5D0F894341A6811780429044617D18C
:10457000017C022914D15979528901238B401342BD
:104580000ED1143001F09CFE024648B1D4F8944498
:104590004FF4807361792068BDE8104000F072B973
:1045A00010BD0000406BFFF7DBBF0000704700004C
:1045B0007FB5124B036000234360C0E9023301253D
:1045C00002260F4B057404460290019300F1840209
:1045D000294600964FF48073143001F04DFE094BCC
:1045E0000294CDE9006304F523724FF480732946E9
:1045F00004F14C0001F014FF04B070BD206C000801
:10460000A5450008CD4400080B68302282F31188CC
:104610000A7903EB820290614A79093243F8220059
:104620008A7912B103EB820398610223C0F89414D3
:104630000374002080F311887047000038B5037FB1
:10464000044613B190F85430ABB9201D0125022166
:10465000FFF734FF04F1140025776FF0010100F03B
:1046600079FC84F8545004F14C006FF00101BDE86E
:10467000384000F06FBC38BD10B50121044604304D
:10468000FFF71CFF0023237784F8543010BD00008F
:1046900038B504460025143001F006FE04F14C0044
:1046A000257701F0D5FE201D84F854500121FFF735
:1046B00005FF2046BDE83840FFF752BF90F8443070
:1046C00003F06003202B07D190F84520212A4FF0FA
:1046D000000303D81F2A06D800207047222AFBD1E6
:1046E000C0E90E3303E0034A82630722C263036416
:1046F000012070472823002037B5D0F894341A6879
:104700001178042904461AD1017C022917D119799C
:10471000128901238B40134211D100F14C05284628
:1047200001F056FF58B101A9284601F09DFED4F8CA
:104730009444019B21790246206800F0B5F803B04B
:1047400030BD0000F0B500EB810385B09E690446E2
:104750000D46FEB1302383F3118804EB8507301D2D
:104760000821FFF7ABFEFB685B691B6806F14C0094
:104770001BB1019001F086FE019803A901F074FEBF
:10478000024648B1039B2946204600F08DF80023DD
:1047900083F3118805B0F0BDFB685A691268002ADE
:1047A000F5D01B8A013B1340F1D104F14402EAE742
:1047B000093138B550F82140DCB1302383F311883A
:1047C000D4F894241368527903EB8203DB689B6965
:1047D0005D6845B104216018FFF770FE294604F1B9
:1047E000140001F077FD2046FFF7BAFE002383F3A3
:1047F000118838BD7047000001F0ECB80123037048
:104800000023C0E90133C36183620362C362436270
:104810000363704738B50446302383F311880025BD
:10482000C0E90355C0E90555416001F0E3F80223F2
:10483000237085F31188284638BD000070B500EB61
:10484000810305465069DA600E46144618B11022FD
:104850000021FDF739F8A06918B110220021FDF7F9
:1048600033F831462846BDE8704001F08DB90000AC
:10487000826802F0011282600022C0E90422826193
:1048800001F00EBAF0B400EB81044789E468012519
:10489000A4698D403D43458123600023A26063608D
:1048A000F0BC01F029BA0000F0B400EB81040789E4
:1048B000E468012564698D403D4305812360002340
:1048C000A2606360F0BC01F0A3BA000070B50223DF
:1048D000002504460370C0E90255C0E90455C564CB
:1048E000856180F8345001F0EBF863681B6823B1F0
:1048F00029462046BDE87040184770BD0378052B57
:1049000010B504460AD080F8503005230370436880
:104910001B680BB1042198470023A36010BD000061
:104920000178052906D190F85020436802701B6871
:1049300003B118477047000070B590F83430044652
:1049400013B1002380F8343004F14402204601F012
:10495000C9F963689B68B3B994F8443013F06005F3
:1049600035D00021204601F069FC0021204601F0ED
:104970005BFC63681B6813B1062120469847062339
:1049800084F8343070BD204698470028E4D0B4F84D
:104990004A30E26B9A4288BFE36394F94430E56B96
:1049A000002B4FF0300380F20381002D00F0F280E5
:1049B000092284F8342083F311880021D4E90E23DE
:1049C0002046FFF771FF002383F31188DAE794F89C
:1049D000452003F07F0343EA022340F20232934270
:1049E00000F0C58021D8B3F5807F48D00DD8012BC9
:1049F0003FD0022B00F09380002BB2D104F14C0287
:104A0000A2630222E2632364C1E7B3F5817F00F071
:104A10009B80B3F5407FA4D194F84630012BA0D100
:104A2000B4F84C3043F0020332E0B3F5006F4DD0E0
:104A300017D8B3F5A06F31D0A3F5C063012B90D880
:104A4000636894F846205E6894F84710B4F84830DC
:104A50002046B047002884D04368A3630368E3631B
:104A60001AE0B3F5106F36D040F6024293427FF45D
:104A700078AF5C4BA3630223E3630023C3E794F89E
:104A80004630012B7FF46DAFB4F84C3023F00203B5
:104A9000C4E90E55A4F84C30256478E7B4F84430E6
:104AA000B3F5A06F0ED194F8463084F84E3020460E
:104AB00001F05EF863681B6813B101212046984736
:104AC000032323700023C4E90E339CE704F14F0352
:104AD000A3630123C3E72378042B10D1302383F38E
:104AE00011882046FFF7C4FE85F31188032163680F
:104AF00084F84F5021701B680BB12046984794F8FA
:104B00004630002BDED084F84F30042323706368D6
:104B10001B68002BD6D0022120469847D2E794F894
:104B200048301D0603F00F0120460AD501F0CCF8ED
:104B3000012804D002287FF414AF2B4B9AE72B4BAB
:104B400098E701F0B3F8F3E794F84630002B7FF4D0
:104B500008AF94F8483013F00F01B3D01A0620467E
:104B600002D501F07FFBADE701F072FBAAE794F8F4
:104B70004630002B7FF4F5AE94F8483013F00F0167
:104B8000A0D01B06204602D501F058FB9AE701F0A1
:104B90004BFB97E7142284F8342083F311882B46CB
:104BA0002A4629462046FFF76DFE85F31188E9E67F
:104BB0005DB1152284F8342083F311880021D4E9F3
:104BC0000E232046FFF75EFEFDE60B2284F834201C
:104BD00083F311882B462A4629462046FFF764FEB8
:104BE000E3E700BF506C0008486C00084C6C0008FC
:104BF00038B590F834300446002B3ED0063BDAB28C
:104C00000F2A34D80F2B32D8DFE803F037313108C0
:104C1000223231313131313131313737C56BB0F872
:104C20004A309D4214D2C3681B8AB5FBF3F203FBE2
:104C300012556DB9302383F311882B462A46294635
:104C4000FFF732FE85F311880A2384F834300EE032
:104C5000142384F83430302383F3118800231A4658
:104C600019462046FFF70EFE002383F3118838BD56
:104C7000036C03B198470023E7E70021204601F0C9
:104C8000DDFA0021204601F0CFFA63681B6813B1FA
:104C90000621204698470623D7E7000010B590F874
:104CA0003430142B044629D017D8062B05D001D850
:104CB0001BB110BD093B022BFBD80021204601F09F
:104CC000BDFA0021204601F0AFFA63681B6813B1FA
:104CD000062120469847062319E0152BE9D10B231E
:104CE00080F83430302383F3118800231A461946A4
:104CF000FFF7DAFD002383F31188DAE7C3689B69C5
:104D00005B68002BD5D1036C03B19847002384F86E
:104D10003430CEE700230375826803691B68996805
:104D20009142FBD25A68036042601060586070473D
:104D300000230375826803691B6899689142FBD858
:104D40005A680360426010605860704708B50846B2
:104D5000302383F311880B7D032B05D0042B0DD05A
:104D60002BB983F3118808BD8B6900221A604FF0BC
:104D7000FF338361FFF7CEFF0023F2E7D1E9003272
:104D800013605A60F3E70000FFF7C4BF054BD96812
:104D90000875186802681A60536001220275D860AD
:104DA000FBF7B8BA104E002030B50C4BDD684B1C39
:104DB00087B004460FD02B46094A684600F05EF9DA
:104DC0002046FFF7E3FF009B13B1684600F060F94F
:104DD000A86907B030BDFFF7D9FFF9E7104E0020F2
:104DE0004D4D0008044B1A68DB6890689B68984238
:104DF00094BF002001207047104E0020084B10B5D2
:104E00001C68D86822681A60536001222275DC6031
:104E1000FFF78EFF01462046BDE81040FBF77ABA47
:104E2000104E002038B5074C0749084801230025DB
:104E30002370656001F004FC0223237085F3118860
:104E400038BD00BF78500020586C0008104E00207C
:104E500008B572B6044B186500F050FC00F002FD76
:104E6000024B03221A70FEE7104E002078500020FB
:104E700000F044B9034A516853685B1A9842FBD862
:104E8000704700BF001000E08B60022308618B8236
:104E9000084670478368A3F1840243F8142C026922
:104EA00043F8442C426943F8402C094A43F8242C27
:104EB000C26843F8182C022203F80C2C002203F8D5
:104EC0000B2C044A43F8102CA3F12000704700BFBC
:104ED0002D030008104E002008B5FFF7DBFFBDE8EA
:104EE0000840FFF751BF0000024BDB6898610F20BC
:104EF000FFF74CBF104E0020302383F31188FFF7DB
:104F0000F3BF000008B50146302383F31188082061
:104F1000FFF74AFF002383F3118808BD064BDB68C7
:104F200039B1426818605A60136043600420FFF78B
:104F30003BBF4FF0FF307047104E0020036898428F
:104F400006D01A680260506099611846FFF71CBFCE
:104F50007047000038B504460D462068844200D1F1
:104F600038BD036823605C608561FFF70DFFF4E7DF
:104F700010B503689C68A2420CD85C688A600B601C
:104F80004C602160596099688A1A9A604FF0FF332B
:104F9000836010BD1B68121BECE700000A2938BFB4
:104FA0000A2170B504460D460A26601901F042FB3D
:104FB00001F02EFB041BA54203D8751C2E460446A7
:104FC000F3E70A2E04D9BDE87040012001F078BB58
:104FD00070BD0000F8B5144B0D46D96103F1100106
:104FE00041600A2A1969826038BF0A22016048605C
:104FF0001861A818144601F00FFB0A2701F008FBFE
:10500000431BA342064606D37C1C281901F012FB61
:1050100027463546F2E70A2F04D9BDE8F8400120BB
:1050200001F04EBBF8BD00BF104E0020F8B506469B
:105030000D4601F0EDFA0F4A134653F8107F9F42D8
:1050400006D12A4601463046BDE8F840FFF7C2BF08
:10505000D169BB68441A2C1928BF2C46A34202D937
:105060002946FFF79BFF224631460348BDE8F8403A
:10507000FFF77EBF104E0020204E002010B4C0E984
:10508000032300235DF8044B4361FFF7CFBF00000B
:1050900010B5194C236998420DD0D0E900328168CF
:1050A00013605A609A680A449A60002303604FF0C4
:1050B000FF33A36110BD2346026843F8102F5360ED
:1050C0000022026022699A4203D1BDE8104001F03B
:1050D000ABBA936881680B44936001F099FA226936
:1050E000E1699268441AA242E4D91144BDE8104033
:1050F000091AFFF753BF00BF104E00202DE9F047FB
:10510000DFF8BC8008F110072C4ED8F8105001F0E1
:105110007FFAD8F81C40AA68031B9A423ED8144470
:10512000D5E900324FF00009C8F81C4013605A60FE
:10513000C5F80090D8F81030B34201D101F074FAEC
:1051400089F31188D5E9033128469847302383F342
:1051500011886B69002BD8D001F05AFA6A69A0EB6C
:1051600004094A4582460DD2022001F0A9FA002224
:10517000D8F81030B34208D151462846BDE8F04770
:10518000FFF728BF121A2244F2E712EB090938BFD1
:105190004A4629463846FFF7EBFEB5E7D8F8103007
:1051A000B34208D01444211AC8F81C00A960BDE815
:1051B000F047FFF7F3BEBDE8F08700BF204E0020A8
:1051C000104E002038B501F023FA054AD2E908450F
:1051D000031B181945F10001C2E9080138BD00BFE1
:1051E000104E002000207047FEE7000070470000CE
:1051F0004FF0FF307047000002290CD0032904D083
:105200000129074818BF00207047032A05D8054820
:1052100000EBC2007047044870470020704700BF91
:10522000306D000838230020E46C000870B59AB097
:105230000546084601A9144600F0C2F801A8FCF78B
:105240003BFB431C5B00C5E90034002223700323B1
:105250006370C6B201AB02341046D1B28E4204F183
:10526000020401D81AB070BD13F8011B04F8021C27
:1052700004F8010C0132F0E708B5302383F31188FC
:105280000348FFF739FA002383F3118808BD00BFF4
:105290008050002090F8443003F01F02012A07D10B
:1052A00090F845200B2A03D10023C0E90E3315E006
:1052B00003F06003202B08D1B0F848302BB990F8E8
:1052C0004520212A03D81F2A04D8FFF7F7B9222A3C
:1052D000EBD0FAE7034A82630722C263036401202A
:1052E000704700BF2F23002007B5052917D8DFE836
:1052F00001F0191603191920302383F31188104A7D
:1053000001900121FFF79AFA01980E4A0221FFF756
:1053100095FA0D48FFF7BCF9002383F3118803B019
:105320005DF804FB302383F311880748FFF786F903
:10533000F2E7302383F311880348FFF79DF9EBE789
:10534000846C0008A86C00088050002038B50C4D13
:105350000C4C0D492A4604F10800FFF767FF05F1E0
:10536000CA0204F110000949FFF760FF05F5CA728F
:1053700004F118000649BDE83840FFF757BF00BFE9
:105380004855002038230020646C00086E6C00082B
:10539000796C000870B5044608460D46FCF78CFA97
:1053A000C6B22046013403780BB9184670BD3246A8
:1053B0002946FCF76DFA0028F3D10120F6E700003A
:1053C0002DE9F04705460C46FCF776FA2C49C6B2A3
:1053D0002846FFF7DFFF08B10836F6B2294928460C
:1053E000FFF7D8FF08B11036F6B2632E0BD8DFF8FE
:1053F0009080DFF89090244FDFF898A02E7846B97F
:105400002670BDE8F08729462046BDE8F04701F048
:1054100051BB252E30D1072241462846FCF738FAE9
:1054200080B91A4B224603F10C0153F8040B42F8E1
:10543000040B8B42F9D119889B7811809370073542
:105440000F34DBE7082249462846FCF721FA98B9D1
:105450000F4BA21C197809090232C95D02F8041C1D
:1054600013F8011B01F00F015345C95D02F8031C3D
:10547000F0D118340835C1E704F8016B0135BDE7F8
:10548000506D0008796C0008586D0008F26A000839
:10549000107AFF1F1C7AFF1FBFF34F8F024AD36899
:1054A000DB03FCD4704700BF003C024008B5094B49
:1054B0001B7873B9FFF7F0FF074B1A69002ABFBFCB
:1054C000064A5A6002F188325A601A6822F48062F1
:1054D0001A6008BDA6570020003C02402301674522
:1054E00008B50B4B1B7893B9FFF7D6FF094B1A6928
:1054F00042F000421A611A6842F480521A601A6837
:1055000022F480521A601A6842F480621A6008BD60
:10551000A6570020003C02401728F0B516D80C4CC6
:105520000C4923787BB90C4D0E4618234FF00062CE
:1055300055F8047B46F8042B013B13F0FF033A4473
:10554000F6D10123237051F82000F0BD0020FCE7C4
:1055500008580020A85700206C6D0008014B53F834
:10556000200070476C6D000818207047172810B590
:10557000044601D9002010BDFFF7CEFF064B53F8BB
:1055800024301844C21A0BB90120F4E71268013222
:10559000F0D1043BF6E700BF6C6D0008172838B562
:1055A000044628D81549FFF777FFFFF77FFFF3235D
:1055B000CB600C23B0FBF3F203FB1205D30143EAEB
:1055C000C503DBB243F4007343F002030B610B69C4
:1055D00043F480330B61FFF75FFFFFF79DFF084B3C
:1055E00053F8241000F03AF9FFF77AFF2046BDE89F
:1055F0003840FFF7BBBF002038BD00BF003C024071
:105600006C6D0008F8B512F00103144642D18218FF
:10561000B2F1026F57D82D4B1B6813F0010352D023
:105620002B4DFFF743FFF323EB60FFF735FF40F20D
:105630000127032C15D824F001046618244C401AC5
:1056400040F20117B142236900EB010524D123F098
:1056500001032361FFF744FF0120F8BD043C04303F
:10566000E7E78307E7D12B6923F440732B612B69AC
:105670003B432B6151F8046B0660BFF34F8FFFF77C
:105680000BFF03689E42E9D02B6923F001032B61D5
:10569000FFF726FF0020E0E723F44073236123692E
:1056A0003B4323610B882B80BFF34F8FFFF7F4FE42
:1056B0002D8831F8023BADB2AB42C3D0236923F051
:1056C00001032361E4E71846C7E700BF0038024042
:1056D000003C0240084908B50B7828B11BB9FFF718
:1056E000E5FE01230B7008BD002BFCD0BDE808408F
:1056F0000870FFF7F5BE00BFA657002008B50649A1
:10570000064800F0ADF8BDE808404FF480314FF096
:10571000805000F0A5B800BF00FF0200000100208B
:105720000846114601F076B9084601F089B9000033
:1057300038B5EFF311859DB9EFF30584C4F3080480
:10574000302334B183F31188FFF73CFD85F31188D2
:1057500038BD83F31188FFF735FD84F3118838BD18
:10576000BDE83840FFF72EBD38B5FFF7E1FF114C1B
:10577000114AC00840EA4170A0FB025EC908A0FBC4
:10578000040C1CEB050CA1FB04404FF000035B4133
:10579000A1FB02121CEB040C43EB000011EB0E0109
:1057A00042F10002411842F10000090941EA00708B
:1057B00038BD00BFCFF753E3A59BC42010B502440A
:1057C000064BD2B2904200D110BD441C00B253F837
:1057D000200041F8040BE0B2F4E700BF502800407D
:1057E0000F4B30B51C6F240407D41C6F44F40074B5
:1057F0001C671C6F44F400441C670A4C236843F484
:10580000807323600244084BD2B2904200D130BD75
:10581000441C00B251F8045B43F82050E0B2F4E7B6
:1058200000380240007000405028004007B50122B7
:1058300001A90020FFF7C2FF019803B05DF804FB47
:1058400013B50446FFF7F2FFA04205D0012201A9DB
:1058500000200194FFF7C4FF02B010BD70470000A4
:105860007047000070470000094B5A88B2F5805F0E
:1058700010460BD022F0020341F20102934205D000
:1058800041F20703C31A584258417047012070473C
:10589000002004E0074B45F255521A6003225A607B
:1058A00040F2FF729A604CF6CC421A60024B012221
:1058B0001A7070470030004010580020034B1B78CE
:1058C0001BB1034B4AF6AA221A60704710580020F9
:1058D00000300040034B1A681AB9034AD2F8742802
:1058E0001A6070470C58002000300240024B4FF005
:1058F0008072C3F8742870470030024008B5FFF783
:10590000E9FF024B1868C0F3407008BD0C58002036
:1059100008B5FFF7DFFF024B1868C0F3007008BD41
:105920000C58002070470000FEE700000A4B0B48AF
:105930000B4A90420BD30B4BDA1C121AC11E22F0F9
:1059400003028B4238BF00220021FBF7BDBF53F892
:10595000041B40F8041BECE7C46F00088C580020BF
:105960008C5800208C58002070B5D0E915439E68F3
:1059700000224FF0FF3504EB42135101D3F8000928
:105980000028BEBFD3F8000940F08040C3F80009EA
:10599000D3F8000B0028BEBFD3F8000B40F08040C6
:1059A000C3F8000B013263189642C3F80859C3F8D4
:1059B000085BE0D24FF00113C4F81C3870BD000042
:1059C000890141F02001016103699B06FCD412208A
:1059D000FFF750BA10B5054C2046FEF70FFF4FF009
:1059E000A0436365024BA36510BD00BF145800209F
:1059F000F06D000870B50378012B054650D12A4B95
:105A0000446D98421BD1294B5A6B42F080025A6375
:105A10005A6D42F080025A655A6D5A6942F080020E
:105A20005A615A6922F080025A610E2143205B6953
:105A3000FEF752FB1E4BE3601E4BC4F800380023F8
:105A4000C4F8003EC02323606E6D4FF45023A3635F
:105A50003369002BFCDA012333610C20FFF70AFACB
:105A60003369DB07FCD41220FFF704FA3369002BFB
:105A7000FCDA0026A6602846FFF776FF6B68C4F8BC
:105A80001068DB68C4F81468C4F81C684BB90A4B8A
:105A9000A3614FF0FF336361A36843F00103A36088
:105AA00070BD064BF4E700BF1458002000380240D8
:105AB0004014004003002002003C30C0083C30C0CD
:105AC000F8B5446D054600212046FFF779FFA96D22
:105AD00000234FF001128F68C4F834384FF000668D
